{
  "contractName": "Ballot",
  "abi": [
    {
      "inputs": [],
      "payable": false,
      "stateMutability": "nonpayable",
      "type": "constructor"
    },
    {
      "anonymous": false,
      "inputs": [],
      "name": "VotingCompleted",
      "type": "event"
    },
    {
      "constant": true,
      "inputs": [],
      "name": "chairperson",
      "outputs": [
        {
          "internalType": "address",
          "name": "",
          "type": "address"
        }
      ],
      "payable": false,
      "stateMutability": "view",
      "type": "function"
    },
    {
      "constant": true,
      "inputs": [],
      "name": "stage",
      "outputs": [
        {
          "internalType": "enum Ballot.Stage",
          "name": "",
          "type": "uint8"
        }
      ],
      "payable": false,
      "stateMutability": "view",
      "type": "function"
    },
    {
      "constant": false,
      "inputs": [
        {
          "internalType": "address",
          "name": "_voter",
          "type": "address"
        }
      ],
      "name": "register",
      "outputs": [],
      "payable": false,
      "stateMutability": "nonpayable",
      "type": "function"
    },
    {
      "constant": false,
      "inputs": [
        {
          "internalType": "uint8",
          "name": "_vote",
          "type": "uint8"
        }
      ],
      "name": "vote",
      "outputs": [],
      "payable": false,
      "stateMutability": "nonpayable",
      "type": "function"
    },
    {
      "constant": true,
      "inputs": [],
      "name": "winningProposal",
      "outputs": [
        {
          "internalType": "uint8",
          "name": "_win",
          "type": "uint8"
        }
      ],
      "payable": false,
      "stateMutability": "view",
      "type": "function"
    },
    {
      "constant": true,
      "inputs": [],
      "name": "getCount",
      "outputs": [
        {
          "internalType": "uint256[4]",
          "name": "",
          "type": "uint256[4]"
        }
      ],
      "payable": false,
      "stateMutability": "view",
      "type": "function"
    }
  ],
  "bytecode": "0x608060405260008060006101000a81548160ff0219169083600381111561002257fe5b021790555034801561003357600080fd5b5033600060016101000a81548173ffffffffffffffffffffffffffffffffffffffff021916908373ffffffffffffffffffffffffffffffffffffffff1602179055506002600160008060019054906101000a900473ffffffffffffffffffffffffffffffffffffffff1673ffffffffffffffffffffffffffffffffffffffff1673ffffffffffffffffffffffffffffffffffffffff1681526020019081526020016000206000018190555060016000806101000a81548160ff021916908360038111156100fc57fe5b021790555042600681905550610565806101176000396000f3fe608060405234801561001057600080fd5b50600436106100625760003560e01c80632e4176cf146100675780634420e486146100b1578063609ff1bd146100f5578063a87d942c14610119578063b3f98adc1461015f578063c040e6b814610190575b600080fd5b61006f6101bc565b604051808273ffffffffffffffffffffffffffffffffffffffff1673ffffffffffffffffffffffffffffffffffffffff16815260200191505060405180910390f35b6100f3600480360360208110156100c757600080fd5b81019080803573ffffffffffffffffffffffffffffffffffffffff1690602001909291905050506101e2565b005b6100fd610309565b604051808260ff1660ff16815260200191505060405180910390f35b610121610372565b6040518082600460200280838360005b8381101561014c578082015181840152602081019050610131565b5050505090500191505060405180910390f35b61018e6004803603602081101561017557600080fd5b81019080803560ff1690602001909291905050506103bd565b005b6101986104fc565b604051808260038111156101a857fe5b60ff16815260200191505060405180910390f35b600060019054906101000a900473ffffffffffffffffffffffffffffffffffffffff1681565b600060019054906101000a900473ffffffffffffffffffffffffffffffffffffffff1673ffffffffffffffffffffffffffffffffffffffff163373ffffffffffffffffffffffffffffffffffffffff161461023c57600080fd5b60016000600160008473ffffffffffffffffffffffffffffffffffffffff1673ffffffffffffffffffffffffffffffffffffffff168152602001908152602001600020600001541461028d57600080fd5b60018060008473ffffffffffffffffffffffffffffffffffffffff1673ffffffffffffffffffffffffffffffffffffffff16815260200190815260200160002060000181905550601e600654014211156103055760026000806101000a81548160ff021916908360038111156102ff57fe5b02179055505b5050565b60006003600080905060008090505b60048160ff161015610362578160028260ff166004811061033557fe5b015411156103555780935060028160ff166004811061035057fe5b015491505b8080600101915050610318565b506000811161036d57fe5b505090565b61037a61050e565b60026004806020026040519081016040528092919082600480156103b3576020028201915b81548152602001906001019080831161039f575b5050505050905090565b60026000600160003373ffffffffffffffffffffffffffffffffffffffff1673ffffffffffffffffffffffffffffffffffffffff16815260200190815260200160002090508060010160009054906101000a900460ff16158015610424575060048360ff16105b8015610434575060008160000154115b61043d57600080fd5b60018160010160006101000a81548160ff021916908315150217905550828160010160016101000a81548160ff021916908360ff160217905550806000015460028460ff166004811061048c57fe5b0160008282540192505081905550603c600654014211156104f75760036000806101000a81548160ff021916908360038111156104c557fe5b02179055507ffa4c46064339896f4ef55eeac982a9e8bd0dbebe83ed7978cf168fa14f679f7060405160405180910390a15b505050565b6000809054906101000a900460ff1681565b604051806080016040528060049060208202803883398082019150509050509056fea265627a7a723158200254e7c08f6d0245f5bbb22b9810c6b1058fe9ca67668e8711393dbc6323bbfe64736f6c63430005100032",
  "source": "pragma solidity >=0.4.21 <0.7.0;\n\n//Name of the smart contract\ncontract Ballot {\n    //variables\n    struct Voter {\n        uint weight;\n        bool voted;\n        uint8 vote;\n    }\n    enum Stage {\n        Init,\n        Reg,\n        Vote,\n        Done\n    }\n    Stage public stage = Stage.Init;\n    address public chairperson;\n    mapping(address => Voter) voters;\n    uint256[4] proposals;\n    uint256 startTime;\n\n    event VotingCompleted();\n\n    //modifiers\n    modifier onlyOwner() {\n        require(msg.sender == chairperson);\n        _;\n    }\n    modifier onlyStage(Stage _stage) {\n        //require(stage == _stage);\n        _;\n    }\n\n    //constructor\n    constructor() public {\n        chairperson = msg.sender;\n        voters[chairperson].weight = 2; // weight is 2 for testing purposes\n        stage = Stage.Reg;\n        startTime = now;\n    }\n\n    //functions\n    function register(address _voter) public onlyOwner onlyStage(Stage.Reg) {\n        require(voters[_voter].weight == 0);\n        voters[_voter].weight = 1;\n        if (now > startTime + 30 seconds) {\n            stage = Stage.Vote;\n        }\n    }\n\n    function vote(uint8 _vote) public onlyStage(Stage.Vote) {\n        Voter storage _voter = voters[msg.sender];\n        require(!_voter.voted && _vote < proposals.length && _voter.weight > 0); \n        _voter.voted = true;\n        _voter.vote = _vote;\n        proposals[_vote] += _voter.weight;\n        if (now > startTime + 60 seconds) {\n            stage = Stage.Done;\n            emit VotingCompleted();\n        }\n    }\n\n    function winningProposal() public view onlyStage(Stage.Done) returns(uint8 _win) {\n        uint256 _winCount = 0;\n        for(uint8 i = 0; i < proposals.length; i++) {\n            if (proposals[i] > _winCount) {\n                _win = i;\n                _winCount = proposals[i];\n            }\n        }\n        assert(_winCount > 0);\n    }\n\n    function getCount() public view returns (uint256[4] memory) {\n        return proposals;\n    }\n}\n",
  "sourcePath": "/media/dhiraj/code/dapps/ballot/contracts/Ballot.sol",
  "compiler": {
    "name": "solc",
    "version": "0.5.16+commit.9c3226ce.Emscripten.clang"
  },
  "schemaVersion": "3.0.23",
  "updatedAt": "2020-04-10T21:02:25.889Z",
  "networkType": "ethereum",
  "devdoc": {
    "methods": {}
  },
  "userdoc": {
    "methods": {}
  }
}